:020000040000FA
:04000000000069286B
:040004000034003490
:08000800FD000308FE000A08D8
:10001000FF00831203138C121A08831203130616AF
:1000200052207F088A007E088300FD0E7D0E0900A5
:10003000C830A000A00B1A280800831603138030D4
:100040008700193099008316031326309800831215
:100050000313903098000800831603130C128C16BB
:10006000831203138B170B170800831603138601E3
:100070008312031386014C2018204C2018200612EE
:100080000230522028305220103052200D305220A1
:100090000130522006300800831203138616182000
:1000A00086120800A300230E0F39A2000608F039BB
:1000B000220486004C2023080F39A2000608F039DC
:1000C000220486004C200800831203130C1E6428AF
:1000D00008001D202C203520831203133130990095
:1000E00064208312031332309900642083120313B7
:1000F0003330990064208312031334309900642054
:02010000802855
:02400E00313F40
:00000001FF
