:020000040000FA
:0400000000002428B0
:040004000034003490
:08000800FD000308FE000A08D8
:10001000FF007F088A007E088300FD0E7D0E090028
:1000200082073F3406345B344F3466346D347C349D
:1000300007347F3467340D30A000FF30A100A10BDE
:100040001F28A00B1F2808008316031386018312A4
:100050000313860183160313880183120313880197
:100060000930A3000930A200FF30A40003110530BD
:10007000A50022082402031D3E284E2801308800D6
:100080002208102086001B20023088002308102040
:1000900086001B20A50B3E28A20334280930A200AD
:1000A000A303031123082402031D34280930A300ED
:0200B0003428F2
:02400E00313F40
:00000001FF
