:020000040000FA
:0400000000001E28B6
:040004000034003490
:08000800FD000308FE000A08D8
:10001000FF007F088A007E088300FD0E7D0E090028
:10002000820779346E343E3473340D30A000FF30D3
:10003000A100A10B1928A00B19280800850183161F
:10004000031306309F008316031330308500831698
:1000500003138601831203138601073085000030E5
:100060001020860015200B308500013010208600FE
:1000700015200D30850002301020860015200E302E
:0C008000850003301020860015202D287C
:02400E00313F40
:00000001FF
