:020000040000FA
:0400000000006E2866
:040004000034003490
:08000800FD000A08FF000308D7
:10001000FE00831203138C121A08831203130616B0
:1000200023207F088A007E088300FD0E7D0E0900D4
:100030008312031386161E2086120800C830A00003
:10004000A00B2028080083120313A100210E0F39F2
:10005000A2000608F03922048600182021080F3972
:10006000A2000608F0392204860018200800831632
:100070000313860183120313860103302320182003
:100080001E2018201E200230232010302320013093
:10009000232028302320063023200D302320080081
:1000A0008316031380308700860119309900831668
:1000B0000313263098008312031390309800080031
:1000C000831603130C128C1683120313C0308B009B
:1000D0000800831203130C1E6B28080050203720E1
:1000E0006020692083120313303099006920831245
:1000F00003133930990069208312031339309900B2
:0C01000069208312031337309900852812
:02400E00313F40
:00000001FF
