:020000040000FA
:04000000000045288F
:040004000034003490
:080008000900FF30A200FF30E7
:10001000A300A20B0928A30B092808002C20211CEF
:1000200013281B2808000310860D0520861F0800D2
:100030008030860008000310860C0520061C08008E
:100040000130860008008312031389309F00831655
:10005000031380309F000800831203131F151F191C
:100060002F28831603131E08A000831203131E08F3
:10007000A100080083160313FF3085008601831258
:10008000031385010130860008003A2023200E204A
:020090004728FF
:02400E00313F40
:00000001FF
