:020000040000FA
:0400000000002428B0
:040004000034003490
:08000800FD000308FE000A08D8
:10001000FF007F088A007E088300FD0E7D0E090028
:1000200082073F3406345B344F3466346D347D349C
:1000300007347F346F340D30A000FF30A100A10BD6
:100040001F28A00B1F2808008316031306301F0863
:10005000831603133C308500831203138501831636
:10006000031386018312031386010930A3000930AC
:10007000A200FF30A40003111430A50022082402BE
:10008000031D4328532802308500220810208600D3
:100090001B20013085002308102086001B20A50BA3
:0E00A0004328A20339280930A200A3033928FF
:02400E00313F40
:00000001FF
