:020000040000FA
:0400000000002428B0
:040004000034003490
:08000800FD000308FE000A08D8
:10001000FF007F088A007E088300FD0E7D0E090028
:1000200082073F3406345B344F3466346D347D349C
:1000300007347F346F347030A100FF30A200A20B70
:100040001F28A10B1F2808008316031306309F00EA
:10005000831603133C308500831203138501831636
:100060000313860183120313860100302508003034
:1000700023080A30A400031124082302031D412889
:100080004F28023085002308102086001B200130F5
:1000900085002508102086001B20A30A392800307F
:0800A000A3000130A507392877
:02400E00313F40
:00000001FF
