:020000040000FA
:040000000000512883
:040004000034003490
:08000800FD000308FE000A08D8
:10001000FF00063081000B11A20B0F2817208B1751
:100020007F088A007E088300FD0E7D0E0900FA30ED
:10003000A2004720A01820282018232826280800DE
:10004000FF30870008000F3087000800033087006A
:1000500008008B168B17831603130430810083125C
:10006000031306308100080083160313FF30850058
:10007000870183120313850187010800831203138C
:1000800089309F008316031380309F00080083127D
:1000900003131F151F194A281E08A1001E08A000DF
:0E00A00008000130A200292034203E205628FE
:02400E00313F40
:00000001FF
