:020000040000FA
:0400000000007B2859
:040004000034003490
:08000800090082073034313495
:100010003234333434343534363437343834393494
:10002000C830A800A80B122808000F30A8002830FC
:10003000A900A80B1928A90B19280800831203137B
:100040008616102086120800831603138601831279
:100050000313860106121E2010201E2010201030CF
:100060003C2028303C2002303C200D303C20013028
:100070003C2006303C200800A400240E0F39A500C7
:100080000608F039250486001E2024080F39A50033
:100090000608F039250486001E200800A708031969
:1000A0005228702054200800A60803190800A6034F
:1000B000A00A0A302002031D5428A001A10A0A3018
:1000C0002102031D5428A101A20A0A302202031DA5
:1000D0005428A201A30A0A302302031D5428080051
:1000E0002608B000A00AFF30A6005420A70B7228F3
:1000F0003008A600080024200330A700FF30A60027
:100100004E200616230805203C20220805203C200E
:0E011000210805203C20200805203C208E28D8
:02400E00313F40
:00000001FF
