:020000040000FA
:0400000000006A286A
:040004000034003490
:08000800FD000308FE000A08D8
:10001000FF000B11A30B15285030A300831203130C
:100020008C1E15288C121A0858207F088A007E081A
:100030008300FD0E7D0E0900C830A200A20B1E2811
:100040000800831603138030870086011930990059
:10005000263098008312031390309800080083160E
:1000600003130C128C16831203130B178B178B16AA
:1000700083160313033081000800831203138601E3
:1000800052201C2052201C200612023058202830FA
:1000900058200D30582010305820013058200D3095
:1000A000582008008312031386161C2086120800AD
:1000B000A000200E0F39A1000608F03921048600A7
:1000C000522020080F39A1000608F03921048600CB
:1000D000522008005030A30021202F203D2006167A
:0600E000303058207228A8
:02400E00313F40
:00000001FF
