:020000040000FA
:0400000000003C2898
:040004000034003490
:08000800FD000308FE000A08D8
:10001000FF000B1106308100A10B0900871F212072
:100020008B1C13281B208B177F088A007E088300F7
:10003000FD0E7D0E09008B10BB30A1000130870042
:100040000800BB30A1000310870D08008B178B162A
:100050000B1683160313033081008312031306303B
:100060008100080083160313013086008701831284
:100070000313860187010800262032201030A100DA
:04008000A001412872
:02400E00313F40
:00000001FF
