:020000040000FA
:0400000000002428B0
:040004000034003490
:08000800FD000308FE000A08D8
:10001000FF007F088A007E088300FD0E7D0E090028
:1000200082073F3406345B344F3466346D347D349C
:1000300007347F346F340D30A000FF30A100A10BD6
:100040001F28A00B1F2808008316031306309F00EB
:10005000831603133430850083120313850183163E
:10006000031386018312031386010930A3000930AC
:10007000A200851D35283C28FF30A40003110A305A
:10008000A50024082202031D4628562802308500B8
:100090002208102086001B20013085002308102034
:1000A00086001B20A50B4628A2033C280930A2008D
:0C00B000A30324082302031D3C2835286C
:02400E00313F40
:00000001FF
