:020000040000FA
:0400000000001C28B8
:040004000034003490
:08000800FF30A100FF30A00051
:10001000A00B0828A10B062808008316031306303E
:100020009F003F308500831208008316031386016A
:1000300083120313860108000D201520051C2B28B0
:10004000851C2E28051D3128851D3428051E3728BE
:10005000851E3A281E28013086003D280230860081
:100060003D28043086003D28083086003D281030A9
:1000700086003D28203086003D28042040201E2890
:0400800086010800ED
:02400E00313F40
:00000001FF
