:020000040000FA
:0400000000002E28A6
:040004000034003490
:08000800FD000308FE000A08D8
:10001000FF007F088A007E088300FD0E7D0E090028
:1000200082073F3406345B344F3466346D347D349C
:1000300007347F346F34F734FF34B934BF34F934C4
:10004000F1340230A000FF30A100FF30A200A20B6B
:100050002728A10B2728A00B272808008501831635
:10006000031306309F00831603133E30850083166A
:10007000031386018312031386011030A30000309E
:0E0080008500A30323081020860021203F28BE
:02400E00313F40
:00000001FF
