:020000040000FA
:0400000000001828BC
:040004000034003490
:0800080082073F3406345B342B
:100010004F3466346D347D3407347F346F340D30A3
:10002000A000FF30A100A10B1328A00B132808008B
:100030008316031306309F008316031308308500D0
:10004000831203138501831603138601831203139E
:100050008601831603138701831203138701A4010A
:10006000A301851D3128342803110A30A2000A306B
:100070002302031D3C284D2802308700230804205A
:1000800086000F20013087002408042086000F20FE
:10009000A20B3C280230A3073128A301A40A0A308E
:0A00A0002402031D3128A4013128B9
:02400E00313F40
:00000001FF
